{
  "contractName": "SimpleStorage",
  "abi": [
    {
      "inputs": [],
      "stateMutability": "nonpayable",
      "type": "constructor"
    },
    {
      "inputs": [],
      "name": "getGreeting",
      "outputs": [
        {
          "internalType": "string",
          "name": "",
          "type": "string"
        }
      ],
      "stateMutability": "view",
      "type": "function",
      "constant": true
    }
  ],
  "bytecode": "0x608060405234801561001057600080fd5b506040518060400160405280600b81526020017f48656c6c6f20576f726c640000000000000000000000000000000000000000008152506000908051906020019061005c929190610062565b506100ff565b828054600181600116156101000203166002900490600052602060002090601f016020900481019282601f106100a357805160ff19168380011785556100d1565b828001600101855582156100d1579182015b828111156100d05782518255916020019190600101906100b5565b5b5090506100de91906100e2565b5090565b5b808211156100fb5760008160009055506001016100e3565b5090565b61018b8061010e6000396000f3fe608060405234801561001057600080fd5b506004361061002b5760003560e01c8063fe50cc7214610030575b600080fd5b6100386100b3565b6040518080602001828103825283818151815260200191508051906020019080838360005b8381101561007857808201518184015260208101905061005d565b50505050905090810190601f1680156100a55780820380516001836020036101000a031916815260200191505b509250505060405180910390f35b606060008054600181600116156101000203166002900480601f01602080910402602001604051908101604052809291908181526020018280546001816001161561010002031660029004801561014b5780601f106101205761010080835404028352916020019161014b565b820191906000526020600020905b81548152906001019060200180831161012e57829003601f168201915b505050505090509056fea2646970667358221220f259886444f99cddcb90740f6877d33924b08d4d02431c104f68feeaeae81fb164736f6c63430007000033",
  "immutableReferences": {},
  "source": "pragma solidity >=0.7.0;\r\n\r\ncontract SimpleStorage {\r\n    string private greeting;\r\n\r\n    constructor() public {\r\n        greeting = \"Hello World\";\r\n    }\r\n\r\n    function getGreeting() public view returns(string memory){\r\n        return greeting;\r\n    }\r\n}",
  "sourcePath": "C:\\Users\\Moulee\\personal_project\\health-care-dapp\\contracts\\SimpleStorage.sol",
  "compiler": {
    "name": "solc",
    "version": "0.7.0+commit.9e61f92b.Emscripten.clang"
  },
  "schemaVersion": "3.4.4",
  "updatedAt": "2022-01-09T15:21:47.606Z",
  "networkType": "ethereum",
  "devdoc": {
    "kind": "dev",
    "methods": {},
    "version": 1
  },
  "userdoc": {
    "kind": "user",
    "methods": {},
    "version": 1
  }
}