{
  "contractName": "User",
  "abi": [
    {
      "inputs": [],
      "stateMutability": "nonpayable",
      "type": "constructor"
    },
    {
      "inputs": [
        {
          "internalType": "uint256",
          "name": "",
          "type": "uint256"
        }
      ],
      "name": "userIdList",
      "outputs": [
        {
          "internalType": "uint256",
          "name": "",
          "type": "uint256"
        }
      ],
      "stateMutability": "view",
      "type": "function",
      "constant": true
    },
    {
      "inputs": [
        {
          "internalType": "uint256",
          "name": "",
          "type": "uint256"
        }
      ],
      "name": "users",
      "outputs": [
        {
          "internalType": "uint256",
          "name": "id",
          "type": "uint256"
        },
        {
          "internalType": "string",
          "name": "name",
          "type": "string"
        },
        {
          "internalType": "string",
          "name": "email",
          "type": "string"
        },
        {
          "internalType": "string",
          "name": "password",
          "type": "string"
        },
        {
          "internalType": "string",
          "name": "phoneNo",
          "type": "string"
        },
        {
          "internalType": "string",
          "name": "planType",
          "type": "string"
        }
      ],
      "stateMutability": "view",
      "type": "function",
      "constant": true
    },
    {
      "inputs": [
        {
          "internalType": "uint256",
          "name": "id",
          "type": "uint256"
        },
        {
          "internalType": "string",
          "name": "name",
          "type": "string"
        },
        {
          "internalType": "string",
          "name": "email",
          "type": "string"
        },
        {
          "internalType": "string",
          "name": "password",
          "type": "string"
        },
        {
          "internalType": "string",
          "name": "phoneNo",
          "type": "string"
        },
        {
          "internalType": "string",
          "name": "planType",
          "type": "string"
        }
      ],
      "name": "addUser",
      "outputs": [
        {
          "components": [
            {
              "internalType": "uint256",
              "name": "id",
              "type": "uint256"
            },
            {
              "internalType": "string",
              "name": "name",
              "type": "string"
            },
            {
              "internalType": "string",
              "name": "email",
              "type": "string"
            },
            {
              "internalType": "string",
              "name": "password",
              "type": "string"
            },
            {
              "internalType": "string",
              "name": "phoneNo",
              "type": "string"
            },
            {
              "internalType": "string",
              "name": "planType",
              "type": "string"
            }
          ],
          "internalType": "struct User.LoginUser",
          "name": "",
          "type": "tuple"
        }
      ],
      "stateMutability": "nonpayable",
      "type": "function"
    },
    {
      "inputs": [
        {
          "internalType": "uint256",
          "name": "index",
          "type": "uint256"
        }
      ],
      "name": "getUser",
      "outputs": [
        {
          "components": [
            {
              "internalType": "uint256",
              "name": "id",
              "type": "uint256"
            },
            {
              "internalType": "string",
              "name": "name",
              "type": "string"
            },
            {
              "internalType": "string",
              "name": "email",
              "type": "string"
            },
            {
              "internalType": "string",
              "name": "password",
              "type": "string"
            },
            {
              "internalType": "string",
              "name": "phoneNo",
              "type": "string"
            },
            {
              "internalType": "string",
              "name": "planType",
              "type": "string"
            }
          ],
          "internalType": "struct User.LoginUser",
          "name": "",
          "type": "tuple"
        }
      ],
      "stateMutability": "view",
      "type": "function",
      "constant": true
    },
    {
      "inputs": [],
      "name": "getUsers",
      "outputs": [
        {
          "components": [
            {
              "internalType": "uint256",
              "name": "id",
              "type": "uint256"
            },
            {
              "internalType": "string",
              "name": "name",
              "type": "string"
            },
            {
              "internalType": "string",
              "name": "email",
              "type": "string"
            },
            {
              "internalType": "string",
              "name": "password",
              "type": "string"
            },
            {
              "internalType": "string",
              "name": "phoneNo",
              "type": "string"
            },
            {
              "internalType": "string",
              "name": "planType",
              "type": "string"
            }
          ],
          "internalType": "struct User.LoginUser[]",
          "name": "",
          "type": "tuple[]"
        }
      ],
      "stateMutability": "view",
      "type": "function",
      "constant": true
    },
    {
      "inputs": [],
      "name": "getLength",
      "outputs": [
        {
          "internalType": "uint256",
          "name": "",
          "type": "uint256"
        }
      ],
      "stateMutability": "view",
      "type": "function",
      "constant": true
    }
  ],
  "bytecode": "0x608060405234801561001057600080fd5b50611465806100206000396000f3fe608060405234801561001057600080fd5b50600436106100615760003560e01c8062ce8e3e14610066578063365b98b21461008457806365eaeb81146100b9578063a1415cc7146100e9578063b0467deb14610119578063be1c766b14610149575b600080fd5b61006e610167565b60405161007b9190611219565b60405180910390f35b61009e60048036038101906100999190610e8c565b610567565b6040516100b096959493929190611278565b60405180910390f35b6100d360048036038101906100ce9190610e8c565b61089b565b6040516100e0919061125d565b60405180910390f35b61010360048036038101906100fe9190610eb5565b6108bc565b604051610110919061123b565b60405180910390f35b610133600480360381019061012e9190610e8c565b6109e3565b604051610140919061123b565b60405180910390f35b610151610d43565b60405161015e919061125d565b60405180910390f35b60608060018054905067ffffffffffffffff8111801561018657600080fd5b506040519080825280602002602001820160405280156101c057816020015b6101ad610d50565b8152602001906001900390816101a55790505b50905060005b60018054905081101561055f57600080600183815481106101e357fe5b906000526020600020015481526020019081526020016000206040518060c001604052908160008201548152602001600182018054600181600116156101000203166002900480601f0160208091040260200160405190810160405280929190818152602001828054600181600116156101000203166002900480156102aa5780601f1061027f576101008083540402835291602001916102aa565b820191906000526020600020905b81548152906001019060200180831161028d57829003601f168201915b50505050508152602001600282018054600181600116156101000203166002900480601f01602080910402602001604051908101604052809291908181526020018280546001816001161561010002031660029004801561034c5780601f106103215761010080835404028352916020019161034c565b820191906000526020600020905b81548152906001019060200180831161032f57829003601f168201915b50505050508152602001600382018054600181600116156101000203166002900480601f0160208091040260200160405190810160405280929190818152602001828054600181600116156101000203166002900480156103ee5780601f106103c3576101008083540402835291602001916103ee565b820191906000526020600020905b8154815290600101906020018083116103d157829003601f168201915b50505050508152602001600482018054600181600116156101000203166002900480601f0160208091040260200160405190810160405280929190818152602001828054600181600116156101000203166002900480156104905780601f1061046557610100808354040283529160200191610490565b820191906000526020600020905b81548152906001019060200180831161047357829003601f168201915b50505050508152602001600582018054600181600116156101000203166002900480601f0160208091040260200160405190810160405280929190818152602001828054600181600116156101000203166002900480156105325780601f1061050757610100808354040283529160200191610532565b820191906000526020600020905b81548152906001019060200180831161051557829003601f168201915b50505050508152505082828151811061054757fe5b602002602001018190525080806001019150506101c6565b508091505090565b6000602052806000526040600020600091509050806000015490806001018054600181600116156101000203166002900480601f0160208091040260200160405190810160405280929190818152602001828054600181600116156101000203166002900480156106195780601f106105ee57610100808354040283529160200191610619565b820191906000526020600020905b8154815290600101906020018083116105fc57829003601f168201915b505050505090806002018054600181600116156101000203166002900480601f0160208091040260200160405190810160405280929190818152602001828054600181600116156101000203166002900480156106b75780601f1061068c576101008083540402835291602001916106b7565b820191906000526020600020905b81548152906001019060200180831161069a57829003601f168201915b505050505090806003018054600181600116156101000203166002900480601f0160208091040260200160405190810160405280929190818152602001828054600181600116156101000203166002900480156107555780601f1061072a57610100808354040283529160200191610755565b820191906000526020600020905b81548152906001019060200180831161073857829003601f168201915b505050505090806004018054600181600116156101000203166002900480601f0160208091040260200160405190810160405280929190818152602001828054600181600116156101000203166002900480156107f35780601f106107c8576101008083540402835291602001916107f3565b820191906000526020600020905b8154815290600101906020018083116107d657829003601f168201915b505050505090806005018054600181600116156101000203166002900480601f0160208091040260200160405190810160405280929190818152602001828054600181600116156101000203166002900480156108915780601f1061086657610100808354040283529160200191610891565b820191906000526020600020905b81548152906001019060200180831161087457829003601f168201915b5050505050905086565b600181815481106108a857fe5b906000526020600020016000915090505481565b6108c4610d50565b6108cc610d50565b6040518060c00160405280898152602001888152602001878152602001868152602001858152602001848152509050806000808a8152602001908152602001600020600082015181600001556020820151816001019080519060200190610934929190610d86565b506040820151816002019080519060200190610951929190610d86565b50606082015181600301908051906020019061096e929190610d86565b50608082015181600401908051906020019061098b929190610d86565b5060a08201518160050190805190602001906109a8929190610d86565b509050506001889080600181540180825580915050600190039060005260206000200160009091909190915055809150509695505050505050565b6109eb610d50565b6000808381526020019081526020016000206040518060c001604052908160008201548152602001600182018054600181600116156101000203166002900480601f016020809104026020016040519081016040528092919081815260200182805460018160011615610100020316600290048015610aab5780601f10610a8057610100808354040283529160200191610aab565b820191906000526020600020905b815481529060010190602001808311610a8e57829003601f168201915b50505050508152602001600282018054600181600116156101000203166002900480601f016020809104026020016040519081016040528092919081815260200182805460018160011615610100020316600290048015610b4d5780601f10610b2257610100808354040283529160200191610b4d565b820191906000526020600020905b815481529060010190602001808311610b3057829003601f168201915b50505050508152602001600382018054600181600116156101000203166002900480601f016020809104026020016040519081016040528092919081815260200182805460018160011615610100020316600290048015610bef5780601f10610bc457610100808354040283529160200191610bef565b820191906000526020600020905b815481529060010190602001808311610bd257829003601f168201915b50505050508152602001600482018054600181600116156101000203166002900480601f016020809104026020016040519081016040528092919081815260200182805460018160011615610100020316600290048015610c915780601f10610c6657610100808354040283529160200191610c91565b820191906000526020600020905b815481529060010190602001808311610c7457829003601f168201915b50505050508152602001600582018054600181600116156101000203166002900480601f016020809104026020016040519081016040528092919081815260200182805460018160011615610100020316600290048015610d335780601f10610d0857610100808354040283529160200191610d33565b820191906000526020600020905b815481529060010190602001808311610d1657829003601f168201915b5050505050815250509050919050565b6000600180549050905090565b6040518060c001604052806000815260200160608152602001606081526020016060815260200160608152602001606081525090565b828054600181600116156101000203166002900490600052602060002090601f016020900481019282601f10610dc757805160ff1916838001178555610df5565b82800160010185558215610df5579182015b82811115610df4578251825591602001919060010190610dd9565b5b509050610e029190610e06565b5090565b5b80821115610e1f576000816000905550600101610e07565b5090565b600082601f830112610e3457600080fd5b8135610e47610e4282611329565b6112fc565b91508082526020830160208301858383011115610e6357600080fd5b610e6e8382846113c5565b50505092915050565b600081359050610e8681611418565b92915050565b600060208284031215610e9e57600080fd5b6000610eac84828501610e77565b91505092915050565b60008060008060008060c08789031215610ece57600080fd5b6000610edc89828a01610e77565b965050602087013567ffffffffffffffff811115610ef957600080fd5b610f0589828a01610e23565b955050604087013567ffffffffffffffff811115610f2257600080fd5b610f2e89828a01610e23565b945050606087013567ffffffffffffffff811115610f4b57600080fd5b610f5789828a01610e23565b935050608087013567ffffffffffffffff811115610f7457600080fd5b610f8089828a01610e23565b92505060a087013567ffffffffffffffff811115610f9d57600080fd5b610fa989828a01610e23565b9150509295509295509295565b6000610fc283836110b1565b905092915050565b6000610fd582611365565b610fdf8185611388565b935083602082028501610ff185611355565b8060005b8581101561102d578484038952815161100e8582610fb6565b94506110198361137b565b925060208a01995050600181019050610ff5565b50829750879550505050505092915050565b600061104a82611370565b6110548185611399565b93506110648185602086016113d4565b61106d81611407565b840191505092915050565b600061108382611370565b61108d81856113aa565b935061109d8185602086016113d4565b6110a681611407565b840191505092915050565b600060c0830160008301516110c960008601826111fb565b50602083015184820360208601526110e1828261103f565b915050604083015184820360408601526110fb828261103f565b91505060608301518482036060860152611115828261103f565b9150506080830151848203608086015261112f828261103f565b91505060a083015184820360a0860152611149828261103f565b9150508091505092915050565b600060c08301600083015161116e60008601826111fb565b5060208301518482036020860152611186828261103f565b915050604083015184820360408601526111a0828261103f565b915050606083015184820360608601526111ba828261103f565b915050608083015184820360808601526111d4828261103f565b91505060a083015184820360a08601526111ee828261103f565b9150508091505092915050565b611204816113bb565b82525050565b611213816113bb565b82525050565b600060208201905081810360008301526112338184610fca565b905092915050565b600060208201905081810360008301526112558184611156565b905092915050565b6000602082019050611272600083018461120a565b92915050565b600060c08201905061128d600083018961120a565b818103602083015261129f8188611078565b905081810360408301526112b38187611078565b905081810360608301526112c78186611078565b905081810360808301526112db8185611078565b905081810360a08301526112ef8184611078565b9050979650505050505050565b6000604051905081810181811067ffffffffffffffff8211171561131f57600080fd5b8060405250919050565b600067ffffffffffffffff82111561134057600080fd5b601f19601f8301169050602081019050919050565b6000819050602082019050919050565b600081519050919050565b600081519050919050565b6000602082019050919050565b600082825260208201905092915050565b600082825260208201905092915050565b600082825260208201905092915050565b6000819050919050565b82818337600083830152505050565b60005b838110156113f25780820151818401526020810190506113d7565b83811115611401576000848401525b50505050565b6000601f19601f8301169050919050565b611421816113bb565b811461142c57600080fd5b5056fea2646970667358221220813251b9498bacbed79076006a560c44b6f30a5aa3aa0ac94b8d5d86be8d370564736f6c63430007000033",
  "immutableReferences": {},
  "source": "pragma solidity >=0.5.0;\r\npragma experimental ABIEncoderV2;\r\n\r\n\r\n/**\r\n * @title Storage\r\n * @dev Store & retrieve value in a variable\r\n */\r\ncontract User {\r\n\r\n    struct LoginUser {\r\n        uint id; // weight is accumulated by delegation\r\n        string name;  // if true, that person already voted\r\n        string email; // if true, that person\r\n        string password; // person delegated to\r\n        string phoneNo; //\r\n        string planType;\r\n    }\r\n\r\n    mapping (uint => LoginUser) public users;\r\n    uint[] public userIdList;\r\n\r\n    constructor() public {\r\n    }\r\n    \r\n    function addUser(uint id,string memory name,string memory email,string memory password,string memory phoneNo,string memory planType) public returns(LoginUser memory){\r\n        LoginUser memory user = LoginUser(id,name, email,password,phoneNo,planType);\r\n        users[id] = user; \r\n        userIdList.push(id);\r\n        return user;\r\n    }\r\n\r\n    function getUser(uint index) external view returns(LoginUser memory){\r\n        return users[index];\r\n    }\r\n\r\n    function getUsers() public view returns (LoginUser[] memory) {\r\n        LoginUser[] memory userArray = new LoginUser[](userIdList.length);\r\n        for(uint i = 0; i < userIdList.length; i++) {\r\n            userArray[i] = users[userIdList[i]];\r\n        }\r\n        return userArray;\r\n    }\r\n\r\n    function getLength() public view returns (uint){\r\n        return userIdList.length;\r\n    }\r\n   \r\n}",
  "sourcePath": "C:\\Users\\Moulee\\personal_project\\health-care-dapp\\contracts\\User.sol",
  "compiler": {
    "name": "solc",
    "version": "0.7.0+commit.9e61f92b.Emscripten.clang"
  },
  "schemaVersion": "3.4.4",
  "updatedAt": "2022-01-09T15:21:47.610Z",
  "networkType": "ethereum",
  "devdoc": {
    "details": "Store & retrieve value in a variable",
    "kind": "dev",
    "methods": {},
    "title": "Storage",
    "version": 1
  },
  "userdoc": {
    "kind": "user",
    "methods": {},
    "version": 1
  }
}