{
  "contractName": "User",
  "abi": [
    {
      "inputs": [],
      "stateMutability": "nonpayable",
      "type": "constructor"
    },
    {
      "inputs": [
        {
          "internalType": "uint256",
          "name": "",
          "type": "uint256"
        }
      ],
      "name": "DoctorIdList",
      "outputs": [
        {
          "internalType": "uint256",
          "name": "",
          "type": "uint256"
        }
      ],
      "stateMutability": "view",
      "type": "function",
      "constant": true
    },
    {
      "inputs": [
        {
          "internalType": "uint256",
          "name": "",
          "type": "uint256"
        }
      ],
      "name": "PatientIdList",
      "outputs": [
        {
          "internalType": "uint256",
          "name": "",
          "type": "uint256"
        }
      ],
      "stateMutability": "view",
      "type": "function",
      "constant": true
    },
    {
      "inputs": [
        {
          "internalType": "uint256",
          "name": "",
          "type": "uint256"
        }
      ],
      "name": "newDoctorDetails",
      "outputs": [
        {
          "internalType": "uint256",
          "name": "id",
          "type": "uint256"
        },
        {
          "internalType": "string",
          "name": "name",
          "type": "string"
        },
        {
          "internalType": "string",
          "name": "age",
          "type": "string"
        },
        {
          "internalType": "string",
          "name": "email",
          "type": "string"
        },
        {
          "internalType": "string",
          "name": "doctorAddress",
          "type": "string"
        },
        {
          "internalType": "string",
          "name": "phoneNo",
          "type": "string"
        },
        {
          "internalType": "string",
          "name": "gender",
          "type": "string"
        }
      ],
      "stateMutability": "view",
      "type": "function",
      "constant": true
    },
    {
      "inputs": [
        {
          "internalType": "uint256",
          "name": "",
          "type": "uint256"
        }
      ],
      "name": "newPatientDetails",
      "outputs": [
        {
          "internalType": "uint256",
          "name": "id",
          "type": "uint256"
        },
        {
          "internalType": "string",
          "name": "name",
          "type": "string"
        },
        {
          "internalType": "string",
          "name": "age",
          "type": "string"
        },
        {
          "internalType": "string",
          "name": "email",
          "type": "string"
        },
        {
          "internalType": "string",
          "name": "patientAddress",
          "type": "string"
        },
        {
          "internalType": "string",
          "name": "phoneNo",
          "type": "string"
        },
        {
          "internalType": "string",
          "name": "gender",
          "type": "string"
        }
      ],
      "stateMutability": "view",
      "type": "function",
      "constant": true
    },
    {
      "inputs": [
        {
          "internalType": "uint256",
          "name": "",
          "type": "uint256"
        }
      ],
      "name": "userIdList",
      "outputs": [
        {
          "internalType": "uint256",
          "name": "",
          "type": "uint256"
        }
      ],
      "stateMutability": "view",
      "type": "function",
      "constant": true
    },
    {
      "inputs": [
        {
          "internalType": "uint256",
          "name": "",
          "type": "uint256"
        }
      ],
      "name": "users",
      "outputs": [
        {
          "internalType": "uint256",
          "name": "id",
          "type": "uint256"
        },
        {
          "internalType": "string",
          "name": "name",
          "type": "string"
        },
        {
          "internalType": "string",
          "name": "email",
          "type": "string"
        },
        {
          "internalType": "string",
          "name": "password",
          "type": "string"
        },
        {
          "internalType": "string",
          "name": "phoneNo",
          "type": "string"
        },
        {
          "internalType": "string",
          "name": "planType",
          "type": "string"
        }
      ],
      "stateMutability": "view",
      "type": "function",
      "constant": true
    },
    {
      "inputs": [
        {
          "internalType": "uint256",
          "name": "id",
          "type": "uint256"
        },
        {
          "internalType": "string",
          "name": "name",
          "type": "string"
        },
        {
          "internalType": "string",
          "name": "email",
          "type": "string"
        },
        {
          "internalType": "string",
          "name": "password",
          "type": "string"
        },
        {
          "internalType": "string",
          "name": "phoneNo",
          "type": "string"
        },
        {
          "internalType": "string",
          "name": "planType",
          "type": "string"
        }
      ],
      "name": "addUser",
      "outputs": [
        {
          "components": [
            {
              "internalType": "uint256",
              "name": "id",
              "type": "uint256"
            },
            {
              "internalType": "string",
              "name": "name",
              "type": "string"
            },
            {
              "internalType": "string",
              "name": "email",
              "type": "string"
            },
            {
              "internalType": "string",
              "name": "password",
              "type": "string"
            },
            {
              "internalType": "string",
              "name": "phoneNo",
              "type": "string"
            },
            {
              "internalType": "string",
              "name": "planType",
              "type": "string"
            }
          ],
          "internalType": "struct User.LoginUser",
          "name": "",
          "type": "tuple"
        }
      ],
      "stateMutability": "nonpayable",
      "type": "function"
    },
    {
      "inputs": [
        {
          "internalType": "uint256",
          "name": "index",
          "type": "uint256"
        }
      ],
      "name": "getUser",
      "outputs": [
        {
          "components": [
            {
              "internalType": "uint256",
              "name": "id",
              "type": "uint256"
            },
            {
              "internalType": "string",
              "name": "name",
              "type": "string"
            },
            {
              "internalType": "string",
              "name": "email",
              "type": "string"
            },
            {
              "internalType": "string",
              "name": "password",
              "type": "string"
            },
            {
              "internalType": "string",
              "name": "phoneNo",
              "type": "string"
            },
            {
              "internalType": "string",
              "name": "planType",
              "type": "string"
            }
          ],
          "internalType": "struct User.LoginUser",
          "name": "",
          "type": "tuple"
        }
      ],
      "stateMutability": "view",
      "type": "function",
      "constant": true
    },
    {
      "inputs": [],
      "name": "getUsers",
      "outputs": [
        {
          "components": [
            {
              "internalType": "uint256",
              "name": "id",
              "type": "uint256"
            },
            {
              "internalType": "string",
              "name": "name",
              "type": "string"
            },
            {
              "internalType": "string",
              "name": "email",
              "type": "string"
            },
            {
              "internalType": "string",
              "name": "password",
              "type": "string"
            },
            {
              "internalType": "string",
              "name": "phoneNo",
              "type": "string"
            },
            {
              "internalType": "string",
              "name": "planType",
              "type": "string"
            }
          ],
          "internalType": "struct User.LoginUser[]",
          "name": "",
          "type": "tuple[]"
        }
      ],
      "stateMutability": "view",
      "type": "function",
      "constant": true
    },
    {
      "inputs": [],
      "name": "getLength",
      "outputs": [
        {
          "internalType": "uint256",
          "name": "",
          "type": "uint256"
        }
      ],
      "stateMutability": "view",
      "type": "function",
      "constant": true
    },
    {
      "inputs": [
        {
          "internalType": "uint256",
          "name": "id",
          "type": "uint256"
        },
        {
          "internalType": "string",
          "name": "name",
          "type": "string"
        },
        {
          "internalType": "string",
          "name": "age",
          "type": "string"
        },
        {
          "internalType": "string",
          "name": "email",
          "type": "string"
        },
        {
          "internalType": "string",
          "name": "patientAddress",
          "type": "string"
        },
        {
          "internalType": "string",
          "name": "phoneNo",
          "type": "string"
        },
        {
          "internalType": "string",
          "name": "gender",
          "type": "string"
        }
      ],
      "name": "addNewPatientDetail",
      "outputs": [
        {
          "components": [
            {
              "internalType": "uint256",
              "name": "id",
              "type": "uint256"
            },
            {
              "internalType": "string",
              "name": "name",
              "type": "string"
            },
            {
              "internalType": "string",
              "name": "age",
              "type": "string"
            },
            {
              "internalType": "string",
              "name": "email",
              "type": "string"
            },
            {
              "internalType": "string",
              "name": "patientAddress",
              "type": "string"
            },
            {
              "internalType": "string",
              "name": "phoneNo",
              "type": "string"
            },
            {
              "internalType": "string",
              "name": "gender",
              "type": "string"
            }
          ],
          "internalType": "struct User.NewPatientDetail",
          "name": "",
          "type": "tuple"
        }
      ],
      "stateMutability": "nonpayable",
      "type": "function"
    },
    {
      "inputs": [],
      "name": "getPatientList",
      "outputs": [
        {
          "components": [
            {
              "internalType": "uint256",
              "name": "id",
              "type": "uint256"
            },
            {
              "internalType": "string",
              "name": "name",
              "type": "string"
            },
            {
              "internalType": "string",
              "name": "age",
              "type": "string"
            },
            {
              "internalType": "string",
              "name": "email",
              "type": "string"
            },
            {
              "internalType": "string",
              "name": "patientAddress",
              "type": "string"
            },
            {
              "internalType": "string",
              "name": "phoneNo",
              "type": "string"
            },
            {
              "internalType": "string",
              "name": "gender",
              "type": "string"
            }
          ],
          "internalType": "struct User.NewPatientDetail[]",
          "name": "",
          "type": "tuple[]"
        }
      ],
      "stateMutability": "view",
      "type": "function",
      "constant": true
    },
    {
      "inputs": [
        {
          "internalType": "uint256",
          "name": "id",
          "type": "uint256"
        },
        {
          "internalType": "string",
          "name": "name",
          "type": "string"
        },
        {
          "internalType": "string",
          "name": "age",
          "type": "string"
        },
        {
          "internalType": "string",
          "name": "email",
          "type": "string"
        },
        {
          "internalType": "string",
          "name": "doctorAddress",
          "type": "string"
        },
        {
          "internalType": "string",
          "name": "phoneNo",
          "type": "string"
        },
        {
          "internalType": "string",
          "name": "gender",
          "type": "string"
        }
      ],
      "name": "addNewDoctorDetail",
      "outputs": [
        {
          "components": [
            {
              "internalType": "uint256",
              "name": "id",
              "type": "uint256"
            },
            {
              "internalType": "string",
              "name": "name",
              "type": "string"
            },
            {
              "internalType": "string",
              "name": "age",
              "type": "string"
            },
            {
              "internalType": "string",
              "name": "email",
              "type": "string"
            },
            {
              "internalType": "string",
              "name": "doctorAddress",
              "type": "string"
            },
            {
              "internalType": "string",
              "name": "phoneNo",
              "type": "string"
            },
            {
              "internalType": "string",
              "name": "gender",
              "type": "string"
            }
          ],
          "internalType": "struct User.NewDoctorDetail",
          "name": "",
          "type": "tuple"
        }
      ],
      "stateMutability": "nonpayable",
      "type": "function"
    },
    {
      "inputs": [],
      "name": "getDoctorList",
      "outputs": [
        {
          "components": [
            {
              "internalType": "uint256",
              "name": "id",
              "type": "uint256"
            },
            {
              "internalType": "string",
              "name": "name",
              "type": "string"
            },
            {
              "internalType": "string",
              "name": "age",
              "type": "string"
            },
            {
              "internalType": "string",
              "name": "email",
              "type": "string"
            },
            {
              "internalType": "string",
              "name": "doctorAddress",
              "type": "string"
            },
            {
              "internalType": "string",
              "name": "phoneNo",
              "type": "string"
            },
            {
              "internalType": "string",
              "name": "gender",
              "type": "string"
            }
          ],
          "internalType": "struct User.NewDoctorDetail[]",
          "name": "",
          "type": "tuple[]"
        }
      ],
      "stateMutability": "view",
      "type": "function",
      "constant": true
    }
  ],
  "bytecode": "0x608060405234801561001057600080fd5b50613162806100206000396000f3fe608060405234801561001057600080fd5b50600436106100e95760003560e01c8063b0467deb1161008c578063c16f69a511610066578063c16f69a514610291578063c2e27673146102c1578063d41a8a19146102f1578063f027f48614610321576100e9565b8063b0467deb14610213578063bdceae8214610243578063be1c766b14610273576100e9565b80635afd3e35116100c85780635afd3e351461015f57806365eaeb8114610195578063a1415cc7146101c5578063a71aefc9146101f5576100e9565b8062ce8e3e146100ee578063365b98b21461010c578063503b135414610141575b600080fd5b6100f6610357565b6040516101039190612d83565b60405180910390f35b610126600480360381019061012191906124ba565b610757565b60405161013896959493929190612e6a565b60405180910390f35b610149610a8b565b6040516101569190612dc7565b60405180910390f35b610179600480360381019061017491906124ba565b610f2e565b60405161018c9796959493929190612eee565b60405180910390f35b6101af60048036038101906101aa91906124ba565b611300565b6040516101bc9190612e4f565b60405180910390f35b6101df60048036038101906101da91906124e3565b611321565b6040516101ec9190612de9565b60405180910390f35b6101fd611448565b60405161020a9190612da5565b60405180910390f35b61022d600480360381019061022891906124ba565b6118eb565b60405161023a9190612de9565b60405180910390f35b61025d600480360381019061025891906124ba565b611c4b565b60405161026a9190612e4f565b60405180910390f35b61027b611c6c565b6040516102889190612e4f565b60405180910390f35b6102ab60048036038101906102a691906125e4565b611c79565b6040516102b89190612e2d565b60405180910390f35b6102db60048036038101906102d691906125e4565b611dc5565b6040516102e89190612e0b565b60405180910390f35b61030b600480360381019061030691906124ba565b611f11565b6040516103189190612e4f565b60405180910390f35b61033b600480360381019061033691906124ba565b611f32565b60405161034e9796959493929190612eee565b60405180910390f35b60608060038054905067ffffffffffffffff8111801561037657600080fd5b506040519080825280602002602001820160405280156103b057816020015b61039d612304565b8152602001906001900390816103955790505b50905060005b60038054905081101561074f57600080600383815481106103d357fe5b906000526020600020015481526020019081526020016000206040518060c001604052908160008201548152602001600182018054600181600116156101000203166002900480601f01602080910402602001604051908101604052809291908181526020018280546001816001161561010002031660029004801561049a5780601f1061046f5761010080835404028352916020019161049a565b820191906000526020600020905b81548152906001019060200180831161047d57829003601f168201915b50505050508152602001600282018054600181600116156101000203166002900480601f01602080910402602001604051908101604052809291908181526020018280546001816001161561010002031660029004801561053c5780601f106105115761010080835404028352916020019161053c565b820191906000526020600020905b81548152906001019060200180831161051f57829003601f168201915b50505050508152602001600382018054600181600116156101000203166002900480601f0160208091040260200160405190810160405280929190818152602001828054600181600116156101000203166002900480156105de5780601f106105b3576101008083540402835291602001916105de565b820191906000526020600020905b8154815290600101906020018083116105c157829003601f168201915b50505050508152602001600482018054600181600116156101000203166002900480601f0160208091040260200160405190810160405280929190818152602001828054600181600116156101000203166002900480156106805780601f1061065557610100808354040283529160200191610680565b820191906000526020600020905b81548152906001019060200180831161066357829003601f168201915b50505050508152602001600582018054600181600116156101000203166002900480601f0160208091040260200160405190810160405280929190818152602001828054600181600116156101000203166002900480156107225780601f106106f757610100808354040283529160200191610722565b820191906000526020600020905b81548152906001019060200180831161070557829003601f168201915b50505050508152505082828151811061073757fe5b602002602001018190525080806001019150506103b6565b508091505090565b6000602052806000526040600020600091509050806000015490806001018054600181600116156101000203166002900480601f0160208091040260200160405190810160405280929190818152602001828054600181600116156101000203166002900480156108095780601f106107de57610100808354040283529160200191610809565b820191906000526020600020905b8154815290600101906020018083116107ec57829003601f168201915b505050505090806002018054600181600116156101000203166002900480601f0160208091040260200160405190810160405280929190818152602001828054600181600116156101000203166002900480156108a75780601f1061087c576101008083540402835291602001916108a7565b820191906000526020600020905b81548152906001019060200180831161088a57829003601f168201915b505050505090806003018054600181600116156101000203166002900480601f0160208091040260200160405190810160405280929190818152602001828054600181600116156101000203166002900480156109455780601f1061091a57610100808354040283529160200191610945565b820191906000526020600020905b81548152906001019060200180831161092857829003601f168201915b505050505090806004018054600181600116156101000203166002900480601f0160208091040260200160405190810160405280929190818152602001828054600181600116156101000203166002900480156109e35780601f106109b8576101008083540402835291602001916109e3565b820191906000526020600020905b8154815290600101906020018083116109c657829003601f168201915b505050505090806005018054600181600116156101000203166002900480601f016020809104026020016040519081016040528092919081815260200182805460018160011615610100020316600290048015610a815780601f10610a5657610100808354040283529160200191610a81565b820191906000526020600020905b815481529060010190602001808311610a6457829003601f168201915b5050505050905086565b60608060048054905067ffffffffffffffff81118015610aaa57600080fd5b50604051908082528060200260200182016040528015610ae457816020015b610ad161233a565b815260200190600190039081610ac95790505b50905060005b600480549050811015610f26576001600060048381548110610b0857fe5b906000526020600020015481526020019081526020016000206040518060e001604052908160008201548152602001600182018054600181600116156101000203166002900480601f016020809104026020016040519081016040528092919081815260200182805460018160011615610100020316600290048015610bcf5780601f10610ba457610100808354040283529160200191610bcf565b820191906000526020600020905b815481529060010190602001808311610bb257829003601f168201915b50505050508152602001600282018054600181600116156101000203166002900480601f016020809104026020016040519081016040528092919081815260200182805460018160011615610100020316600290048015610c715780601f10610c4657610100808354040283529160200191610c71565b820191906000526020600020905b815481529060010190602001808311610c5457829003601f168201915b50505050508152602001600382018054600181600116156101000203166002900480601f016020809104026020016040519081016040528092919081815260200182805460018160011615610100020316600290048015610d135780601f10610ce857610100808354040283529160200191610d13565b820191906000526020600020905b815481529060010190602001808311610cf657829003601f168201915b50505050508152602001600482018054600181600116156101000203166002900480601f016020809104026020016040519081016040528092919081815260200182805460018160011615610100020316600290048015610db55780601f10610d8a57610100808354040283529160200191610db5565b820191906000526020600020905b815481529060010190602001808311610d9857829003601f168201915b50505050508152602001600582018054600181600116156101000203166002900480601f016020809104026020016040519081016040528092919081815260200182805460018160011615610100020316600290048015610e575780601f10610e2c57610100808354040283529160200191610e57565b820191906000526020600020905b815481529060010190602001808311610e3a57829003601f168201915b50505050508152602001600682018054600181600116156101000203166002900480601f016020809104026020016040519081016040528092919081815260200182805460018160011615610100020316600290048015610ef95780601f10610ece57610100808354040283529160200191610ef9565b820191906000526020600020905b815481529060010190602001808311610edc57829003601f168201915b505050505081525050828281518110610f0e57fe5b60200260200101819052508080600101915050610aea565b508091505090565b6002602052806000526040600020600091509050806000015490806001018054600181600116156101000203166002900480601f016020809104026020016040519081016040528092919081815260200182805460018160011615610100020316600290048015610fe05780601f10610fb557610100808354040283529160200191610fe0565b820191906000526020600020905b815481529060010190602001808311610fc357829003601f168201915b505050505090806002018054600181600116156101000203166002900480601f01602080910402602001604051908101604052809291908181526020018280546001816001161561010002031660029004801561107e5780601f106110535761010080835404028352916020019161107e565b820191906000526020600020905b81548152906001019060200180831161106157829003601f168201915b505050505090806003018054600181600116156101000203166002900480601f01602080910402602001604051908101604052809291908181526020018280546001816001161561010002031660029004801561111c5780601f106110f15761010080835404028352916020019161111c565b820191906000526020600020905b8154815290600101906020018083116110ff57829003601f168201915b505050505090806004018054600181600116156101000203166002900480601f0160208091040260200160405190810160405280929190818152602001828054600181600116156101000203166002900480156111ba5780601f1061118f576101008083540402835291602001916111ba565b820191906000526020600020905b81548152906001019060200180831161119d57829003601f168201915b505050505090806005018054600181600116156101000203166002900480601f0160208091040260200160405190810160405280929190818152602001828054600181600116156101000203166002900480156112585780601f1061122d57610100808354040283529160200191611258565b820191906000526020600020905b81548152906001019060200180831161123b57829003601f168201915b505050505090806006018054600181600116156101000203166002900480601f0160208091040260200160405190810160405280929190818152602001828054600181600116156101000203166002900480156112f65780601f106112cb576101008083540402835291602001916112f6565b820191906000526020600020905b8154815290600101906020018083116112d957829003601f168201915b5050505050905087565b6003818154811061130d57fe5b906000526020600020016000915090505481565b611329612304565b611331612304565b6040518060c00160405280898152602001888152602001878152602001868152602001858152602001848152509050806000808a8152602001908152602001600020600082015181600001556020820151816001019080519060200190611399929190612377565b5060408201518160020190805190602001906113b6929190612377565b5060608201518160030190805190602001906113d3929190612377565b5060808201518160040190805190602001906113f0929190612377565b5060a082015181600501908051906020019061140d929190612377565b509050506003889080600181540180825580915050600190039060005260206000200160009091909190915055809150509695505050505050565b60608060058054905067ffffffffffffffff8111801561146757600080fd5b506040519080825280602002602001820160405280156114a157816020015b61148e6123f7565b8152602001906001900390816114865790505b50905060005b6005805490508110156118e35760026000600583815481106114c557fe5b906000526020600020015481526020019081526020016000206040518060e001604052908160008201548152602001600182018054600181600116156101000203166002900480601f01602080910402602001604051908101604052809291908181526020018280546001816001161561010002031660029004801561158c5780601f106115615761010080835404028352916020019161158c565b820191906000526020600020905b81548152906001019060200180831161156f57829003601f168201915b50505050508152602001600282018054600181600116156101000203166002900480601f01602080910402602001604051908101604052809291908181526020018280546001816001161561010002031660029004801561162e5780601f106116035761010080835404028352916020019161162e565b820191906000526020600020905b81548152906001019060200180831161161157829003601f168201915b50505050508152602001600382018054600181600116156101000203166002900480601f0160208091040260200160405190810160405280929190818152602001828054600181600116156101000203166002900480156116d05780601f106116a5576101008083540402835291602001916116d0565b820191906000526020600020905b8154815290600101906020018083116116b357829003601f168201915b50505050508152602001600482018054600181600116156101000203166002900480601f0160208091040260200160405190810160405280929190818152602001828054600181600116156101000203166002900480156117725780601f1061174757610100808354040283529160200191611772565b820191906000526020600020905b81548152906001019060200180831161175557829003601f168201915b50505050508152602001600582018054600181600116156101000203166002900480601f0160208091040260200160405190810160405280929190818152602001828054600181600116156101000203166002900480156118145780601f106117e957610100808354040283529160200191611814565b820191906000526020600020905b8154815290600101906020018083116117f757829003601f168201915b50505050508152602001600682018054600181600116156101000203166002900480601f0160208091040260200160405190810160405280929190818152602001828054600181600116156101000203166002900480156118b65780601f1061188b576101008083540402835291602001916118b6565b820191906000526020600020905b81548152906001019060200180831161189957829003601f168201915b5050505050815250508282815181106118cb57fe5b602002602001018190525080806001019150506114a7565b508091505090565b6118f3612304565b6000808381526020019081526020016000206040518060c001604052908160008201548152602001600182018054600181600116156101000203166002900480601f0160208091040260200160405190810160405280929190818152602001828054600181600116156101000203166002900480156119b35780601f10611988576101008083540402835291602001916119b3565b820191906000526020600020905b81548152906001019060200180831161199657829003601f168201915b50505050508152602001600282018054600181600116156101000203166002900480601f016020809104026020016040519081016040528092919081815260200182805460018160011615610100020316600290048015611a555780601f10611a2a57610100808354040283529160200191611a55565b820191906000526020600020905b815481529060010190602001808311611a3857829003601f168201915b50505050508152602001600382018054600181600116156101000203166002900480601f016020809104026020016040519081016040528092919081815260200182805460018160011615610100020316600290048015611af75780601f10611acc57610100808354040283529160200191611af7565b820191906000526020600020905b815481529060010190602001808311611ada57829003601f168201915b50505050508152602001600482018054600181600116156101000203166002900480601f016020809104026020016040519081016040528092919081815260200182805460018160011615610100020316600290048015611b995780601f10611b6e57610100808354040283529160200191611b99565b820191906000526020600020905b815481529060010190602001808311611b7c57829003601f168201915b50505050508152602001600582018054600181600116156101000203166002900480601f016020809104026020016040519081016040528092919081815260200182805460018160011615610100020316600290048015611c3b5780601f10611c1057610100808354040283529160200191611c3b565b820191906000526020600020905b815481529060010190602001808311611c1e57829003601f168201915b5050505050815250509050919050565b60048181548110611c5857fe5b906000526020600020016000915090505481565b6000600380549050905090565b611c8161233a565b611c8961233a565b6040518060e001604052808a815260200189815260200188815260200187815260200186815260200185815260200184815250905080600160008b8152602001908152602001600020600082015181600001556020820151816001019080519060200190611cf8929190612377565b506040820151816002019080519060200190611d15929190612377565b506060820151816003019080519060200190611d32929190612377565b506080820151816004019080519060200190611d4f929190612377565b5060a0820151816005019080519060200190611d6c929190612377565b5060c0820151816006019080519060200190611d89929190612377565b50905050600489908060018154018082558091505060019003906000526020600020016000909190919091505580915050979650505050505050565b611dcd6123f7565b611dd56123f7565b6040518060e001604052808a815260200189815260200188815260200187815260200186815260200185815260200184815250905080600260008b8152602001908152602001600020600082015181600001556020820151816001019080519060200190611e44929190612377565b506040820151816002019080519060200190611e61929190612377565b506060820151816003019080519060200190611e7e929190612377565b506080820151816004019080519060200190611e9b929190612377565b5060a0820151816005019080519060200190611eb8929190612377565b5060c0820151816006019080519060200190611ed5929190612377565b50905050600589908060018154018082558091505060019003906000526020600020016000909190919091505580915050979650505050505050565b60058181548110611f1e57fe5b906000526020600020016000915090505481565b6001602052806000526040600020600091509050806000015490806001018054600181600116156101000203166002900480601f016020809104026020016040519081016040528092919081815260200182805460018160011615610100020316600290048015611fe45780601f10611fb957610100808354040283529160200191611fe4565b820191906000526020600020905b815481529060010190602001808311611fc757829003601f168201915b505050505090806002018054600181600116156101000203166002900480601f0160208091040260200160405190810160405280929190818152602001828054600181600116156101000203166002900480156120825780601f1061205757610100808354040283529160200191612082565b820191906000526020600020905b81548152906001019060200180831161206557829003601f168201915b505050505090806003018054600181600116156101000203166002900480601f0160208091040260200160405190810160405280929190818152602001828054600181600116156101000203166002900480156121205780601f106120f557610100808354040283529160200191612120565b820191906000526020600020905b81548152906001019060200180831161210357829003601f168201915b505050505090806004018054600181600116156101000203166002900480601f0160208091040260200160405190810160405280929190818152602001828054600181600116156101000203166002900480156121be5780601f10612193576101008083540402835291602001916121be565b820191906000526020600020905b8154815290600101906020018083116121a157829003601f168201915b505050505090806005018054600181600116156101000203166002900480601f01602080910402602001604051908101604052809291908181526020018280546001816001161561010002031660029004801561225c5780601f106122315761010080835404028352916020019161225c565b820191906000526020600020905b81548152906001019060200180831161223f57829003601f168201915b505050505090806006018054600181600116156101000203166002900480601f0160208091040260200160405190810160405280929190818152602001828054600181600116156101000203166002900480156122fa5780601f106122cf576101008083540402835291602001916122fa565b820191906000526020600020905b8154815290600101906020018083116122dd57829003601f168201915b5050505050905087565b6040518060c001604052806000815260200160608152602001606081526020016060815260200160608152602001606081525090565b6040518060e00160405280600081526020016060815260200160608152602001606081526020016060815260200160608152602001606081525090565b828054600181600116156101000203166002900490600052602060002090601f016020900481019282601f106123b857805160ff19168380011785556123e6565b828001600101855582156123e6579182015b828111156123e55782518255916020019190600101906123ca565b5b5090506123f39190612434565b5090565b6040518060e00160405280600081526020016060815260200160608152602001606081526020016060815260200160608152602001606081525090565b5b8082111561244d576000816000905550600101612435565b5090565b600082601f83011261246257600080fd5b813561247561247082612fb4565b612f87565b9150808252602083016020830185838301111561249157600080fd5b61249c8382846130c2565b50505092915050565b6000813590506124b481613115565b92915050565b6000602082840312156124cc57600080fd5b60006124da848285016124a5565b91505092915050565b60008060008060008060c087890312156124fc57600080fd5b600061250a89828a016124a5565b965050602087013567ffffffffffffffff81111561252757600080fd5b61253389828a01612451565b955050604087013567ffffffffffffffff81111561255057600080fd5b61255c89828a01612451565b945050606087013567ffffffffffffffff81111561257957600080fd5b61258589828a01612451565b935050608087013567ffffffffffffffff8111156125a257600080fd5b6125ae89828a01612451565b92505060a087013567ffffffffffffffff8111156125cb57600080fd5b6125d789828a01612451565b9150509295509295509295565b600080600080600080600060e0888a0312156125ff57600080fd5b600061260d8a828b016124a5565b975050602088013567ffffffffffffffff81111561262a57600080fd5b6126368a828b01612451565b965050604088013567ffffffffffffffff81111561265357600080fd5b61265f8a828b01612451565b955050606088013567ffffffffffffffff81111561267c57600080fd5b6126888a828b01612451565b945050608088013567ffffffffffffffff8111156126a557600080fd5b6126b18a828b01612451565b93505060a088013567ffffffffffffffff8111156126ce57600080fd5b6126da8a828b01612451565b92505060c088013567ffffffffffffffff8111156126f757600080fd5b6127038a828b01612451565b91505092959891949750929550565b600061271e838361291f565b905092915050565b60006127328383612a69565b905092915050565b60006127468383612be7565b905092915050565b600061275982613010565b6127638185613063565b93508360208202850161277585612fe0565b8060005b858110156127b157848403895281516127928582612712565b945061279d8361303c565b925060208a01995050600181019050612779565b50829750879550505050505092915050565b60006127ce8261301b565b6127d88185613074565b9350836020820285016127ea85612ff0565b8060005b8581101561282657848403895281516128078582612726565b945061281283613049565b925060208a019950506001810190506127ee565b50829750879550505050505092915050565b600061284382613026565b61284d8185613085565b93508360208202850161285f85613000565b8060005b8581101561289b578484038952815161287c858261273a565b945061288783613056565b925060208a01995050600181019050612863565b50829750879550505050505092915050565b60006128b882613031565b6128c28185613096565b93506128d28185602086016130d1565b6128db81613104565b840191505092915050565b60006128f182613031565b6128fb81856130a7565b935061290b8185602086016130d1565b61291481613104565b840191505092915050565b600060c0830160008301516129376000860182612d65565b506020830151848203602086015261294f82826128ad565b9150506040830151848203604086015261296982826128ad565b9150506060830151848203606086015261298382826128ad565b9150506080830151848203608086015261299d82826128ad565b91505060a083015184820360a08601526129b782826128ad565b9150508091505092915050565b600060c0830160008301516129dc6000860182612d65565b50602083015184820360208601526129f482826128ad565b91505060408301518482036040860152612a0e82826128ad565b91505060608301518482036060860152612a2882826128ad565b91505060808301518482036080860152612a4282826128ad565b91505060a083015184820360a0860152612a5c82826128ad565b9150508091505092915050565b600060e083016000830151612a816000860182612d65565b5060208301518482036020860152612a9982826128ad565b91505060408301518482036040860152612ab382826128ad565b91505060608301518482036060860152612acd82826128ad565b91505060808301518482036080860152612ae782826128ad565b91505060a083015184820360a0860152612b0182826128ad565b91505060c083015184820360c0860152612b1b82826128ad565b9150508091505092915050565b600060e083016000830151612b406000860182612d65565b5060208301518482036020860152612b5882826128ad565b91505060408301518482036040860152612b7282826128ad565b91505060608301518482036060860152612b8c82826128ad565b91505060808301518482036080860152612ba682826128ad565b91505060a083015184820360a0860152612bc082826128ad565b91505060c083015184820360c0860152612bda82826128ad565b9150508091505092915050565b600060e083016000830151612bff6000860182612d65565b5060208301518482036020860152612c1782826128ad565b91505060408301518482036040860152612c3182826128ad565b91505060608301518482036060860152612c4b82826128ad565b91505060808301518482036080860152612c6582826128ad565b91505060a083015184820360a0860152612c7f82826128ad565b91505060c083015184820360c0860152612c9982826128ad565b9150508091505092915050565b600060e083016000830151612cbe6000860182612d65565b5060208301518482036020860152612cd682826128ad565b91505060408301518482036040860152612cf082826128ad565b91505060608301518482036060860152612d0a82826128ad565b91505060808301518482036080860152612d2482826128ad565b91505060a083015184820360a0860152612d3e82826128ad565b91505060c083015184820360c0860152612d5882826128ad565b9150508091505092915050565b612d6e816130b8565b82525050565b612d7d816130b8565b82525050565b60006020820190508181036000830152612d9d818461274e565b905092915050565b60006020820190508181036000830152612dbf81846127c3565b905092915050565b60006020820190508181036000830152612de18184612838565b905092915050565b60006020820190508181036000830152612e0381846129c4565b905092915050565b60006020820190508181036000830152612e258184612b28565b905092915050565b60006020820190508181036000830152612e478184612ca6565b905092915050565b6000602082019050612e646000830184612d74565b92915050565b600060c082019050612e7f6000830189612d74565b8181036020830152612e9181886128e6565b90508181036040830152612ea581876128e6565b90508181036060830152612eb981866128e6565b90508181036080830152612ecd81856128e6565b905081810360a0830152612ee181846128e6565b9050979650505050505050565b600060e082019050612f03600083018a612d74565b8181036020830152612f1581896128e6565b90508181036040830152612f2981886128e6565b90508181036060830152612f3d81876128e6565b90508181036080830152612f5181866128e6565b905081810360a0830152612f6581856128e6565b905081810360c0830152612f7981846128e6565b905098975050505050505050565b6000604051905081810181811067ffffffffffffffff82111715612faa57600080fd5b8060405250919050565b600067ffffffffffffffff821115612fcb57600080fd5b601f19601f8301169050602081019050919050565b6000819050602082019050919050565b6000819050602082019050919050565b6000819050602082019050919050565b600081519050919050565b600081519050919050565b600081519050919050565b600081519050919050565b6000602082019050919050565b6000602082019050919050565b6000602082019050919050565b600082825260208201905092915050565b600082825260208201905092915050565b600082825260208201905092915050565b600082825260208201905092915050565b600082825260208201905092915050565b6000819050919050565b82818337600083830152505050565b60005b838110156130ef5780820151818401526020810190506130d4565b838111156130fe576000848401525b50505050565b6000601f19601f8301169050919050565b61311e816130b8565b811461312957600080fd5b5056fea264697066735822122046fd25a13738778395fbbe3d3dd57bc470017f9e0e3fcb3f44da66cfac61b97c64736f6c63430007000033",
  "immutableReferences": {},
  "source": "pragma solidity >=0.5.0;\r\npragma experimental ABIEncoderV2;\r\n\r\n\r\n/**\r\n * @title Storage\r\n * @dev Store & retrieve value in a variable\r\n */\r\ncontract User {\r\n\r\n    struct LoginUser {\r\n        uint id; // weight is accumulated by delegation\r\n        string name;  // if true, that person already voted\r\n        string email; // if true, that person\r\n        string password; // person delegated to\r\n        string phoneNo; //\r\n        string planType;\r\n    }\r\n\r\n    struct NewPatientDetail{\r\n        uint id; // weight is accumulated by delegation\r\n        string name; \r\n        string age; // if true, that person already voted\r\n        string email;\r\n        string patientAddress;\r\n        string phoneNo; \r\n        string gender;\r\n        \r\n    }\r\n\r\n      struct NewDoctorDetail{\r\n        uint id; // weight is accumulated by delegation\r\n        string name; \r\n        string age; // if true, that person already voted\r\n        string email;\r\n        string doctorAddress;\r\n        string phoneNo; \r\n        string gender;\r\n        \r\n    }\r\n\r\n    mapping (uint => LoginUser) public users;\r\n    mapping (uint => NewPatientDetail) public newPatientDetails;\r\n    mapping (uint => NewDoctorDetail) public newDoctorDetails;\r\n    uint[] public userIdList;\r\n    uint[] public PatientIdList;\r\n    uint[] public DoctorIdList;\r\n\r\n    constructor() public {\r\n    }\r\n    \r\n    function addUser(uint id,string memory name,string memory email,string memory password,string memory phoneNo,string memory planType) public returns(LoginUser memory){\r\n        LoginUser memory user = LoginUser(id,name, email,password,phoneNo,planType);\r\n        users[id] = user; \r\n        userIdList.push(id);\r\n        return user;\r\n    }\r\n\r\n    function getUser(uint index) external view returns(LoginUser memory){\r\n        return users[index];\r\n    }\r\n\r\n    function getUsers() public view returns (LoginUser[] memory) {\r\n        LoginUser[] memory userArray = new LoginUser[](userIdList.length);\r\n        for(uint i = 0; i < userIdList.length; i++) {\r\n            userArray[i] = users[userIdList[i]];\r\n        }\r\n        return userArray;\r\n    }\r\n\r\n    function getLength() public view returns (uint){\r\n        return userIdList.length;\r\n    }\r\n\r\n     function addNewPatientDetail(uint id,string memory name,string memory age,string memory email,string memory patientAddress,string memory phoneNo,string memory gender) public returns(NewPatientDetail memory){\r\n        NewPatientDetail memory newPatientDetail = NewPatientDetail(id,name,age, email,patientAddress,phoneNo,gender);\r\n        newPatientDetails[id] = newPatientDetail; \r\n        PatientIdList.push(id);\r\n        return newPatientDetail;\r\n    }\r\n\r\n\r\n    function getPatientList() public view returns (NewPatientDetail[] memory) {\r\n        NewPatientDetail[] memory userArray = new NewPatientDetail[](PatientIdList.length);\r\n        for(uint i = 0; i < PatientIdList.length; i++) {\r\n            userArray[i] = newPatientDetails[PatientIdList[i]];\r\n        }\r\n        return userArray;\r\n    }\r\n\r\n    function addNewDoctorDetail(uint id,string memory name,string memory age,string memory email,string memory doctorAddress,string memory phoneNo,string memory gender) public returns(NewDoctorDetail memory){\r\n        NewDoctorDetail memory newDoctorDetail = NewDoctorDetail(id,name,age, email,doctorAddress,phoneNo,gender);\r\n        newDoctorDetails[id] = newDoctorDetail; \r\n        DoctorIdList.push(id);\r\n        return newDoctorDetail;\r\n    }\r\n\r\n\r\n    function getDoctorList() public view returns (NewDoctorDetail[] memory) {\r\n        NewDoctorDetail[] memory userArray = new NewDoctorDetail[](DoctorIdList.length);\r\n        for(uint i = 0; i < DoctorIdList.length; i++) {\r\n            userArray[i] = newDoctorDetails[DoctorIdList[i]];\r\n        }\r\n        return userArray;\r\n    }\r\n   \r\n   \r\n}",
  "sourcePath": "D:\\BlockChain\\health-care-dapp\\contracts\\User.sol",
  "compiler": {
    "name": "solc",
    "version": "0.7.0+commit.9e61f92b.Emscripten.clang"
  },
  "schemaVersion": "3.4.4",
  "updatedAt": "2022-01-16T14:02:55.723Z",
  "networkType": "ethereum",
  "devdoc": {
    "details": "Store & retrieve value in a variable",
    "kind": "dev",
    "methods": {},
    "title": "Storage",
    "version": 1
  },
  "userdoc": {
    "kind": "user",
    "methods": {},
    "version": 1
  }
}