{
  "contractName": "User",
  "abi": [
    {
      "inputs": [
        {
          "internalType": "string",
          "name": "name",
          "type": "string"
        },
        {
          "internalType": "string",
          "name": "password",
          "type": "string"
        }
      ],
      "name": "addUser",
      "outputs": [
        {
          "internalType": "bool",
          "name": "",
          "type": "bool"
        }
      ],
      "stateMutability": "nonpayable",
      "type": "function"
    },
    {
      "inputs": [],
      "name": "getUsers",
      "outputs": [
        {
          "components": [
            {
              "internalType": "uint256",
              "name": "id",
              "type": "uint256"
            },
            {
              "internalType": "string",
              "name": "name",
              "type": "string"
            },
            {
              "internalType": "string",
              "name": "password",
              "type": "string"
            }
          ],
          "internalType": "struct User.LoginUser[]",
          "name": "",
          "type": "tuple[]"
        }
      ],
      "stateMutability": "nonpayable",
      "type": "function"
    }
  ],
  "bytecode": "0x608060405234801561001057600080fd5b50610722806100206000396000f3fe608060405234801561001057600080fd5b50600436106100355760003560e01c8062ce8e3e1461003a578063079eaf3414610058575b600080fd5b610042610088565b60405161004f9190610598565b60405180910390f35b610072600480360381019061006d91906103f5565b610235565b60405161007f91906105ba565b60405180910390f35b60606000805480602002602001604051908101604052809291908181526020016000905b8282101561022c578382906000526020600020906003020160405180606001604052908160008201548152602001600182018054600181600116156101000203166002900480601f0160208091040260200160405190810160405280929190818152602001828054600181600116156101000203166002900480156101725780601f1061014757610100808354040283529160200191610172565b820191906000526020600020905b81548152906001019060200180831161015557829003601f168201915b50505050508152602001600282018054600181600116156101000203166002900480601f0160208091040260200160405190810160405280929190818152602001828054600181600116156101000203166002900480156102145780601f106101e957610100808354040283529160200191610214565b820191906000526020600020905b8154815290600101906020018083116101f757829003601f168201915b505050505081525050815260200190600101906100ac565b50505050905090565b60008060008054905090506102486102e3565b604051806060016040528083815260200186815260200185815250905060008190806001815401808255809150506001900390600052602060002090600302016000909190919091506000820151816000015560208201518160010190805190602001906102b7929190610304565b5060408201518160020190805190602001906102d4929190610304565b50505060019250505092915050565b60405180606001604052806000815260200160608152602001606081525090565b828054600181600116156101000203166002900490600052602060002090601f016020900481019282601f1061034557805160ff1916838001178555610373565b82800160010185558215610373579182015b82811115610372578251825591602001919060010190610357565b5b5090506103809190610384565b5090565b5b8082111561039d576000816000905550600101610385565b5090565b600082601f8301126103b257600080fd5b81356103c56103c082610602565b6105d5565b915080825260208301602083018583830111156103e157600080fd5b6103ec838284610699565b50505092915050565b6000806040838503121561040857600080fd5b600083013567ffffffffffffffff81111561042257600080fd5b61042e858286016103a1565b925050602083013567ffffffffffffffff81111561044b57600080fd5b610457858286016103a1565b9150509250929050565b600061046d8383610532565b905092915050565b60006104808261063e565b61048a8185610661565b93508360208202850161049c8561062e565b8060005b858110156104d857848403895281516104b98582610461565b94506104c483610654565b925060208a019950506001810190506104a0565b50829750879550505050505092915050565b6104f381610683565b82525050565b600061050482610649565b61050e8185610672565b935061051e8185602086016106a8565b610527816106db565b840191505092915050565b600060608301600083015161054a6000860182610589565b506020830151848203602086015261056282826104f9565b9150506040830151848203604086015261057c82826104f9565b9150508091505092915050565b6105928161068f565b82525050565b600060208201905081810360008301526105b28184610475565b905092915050565b60006020820190506105cf60008301846104ea565b92915050565b6000604051905081810181811067ffffffffffffffff821117156105f857600080fd5b8060405250919050565b600067ffffffffffffffff82111561061957600080fd5b601f19601f8301169050602081019050919050565b6000819050602082019050919050565b600081519050919050565b600081519050919050565b6000602082019050919050565b600082825260208201905092915050565b600082825260208201905092915050565b60008115159050919050565b6000819050919050565b82818337600083830152505050565b60005b838110156106c65780820151818401526020810190506106ab565b838111156106d5576000848401525b50505050565b6000601f19601f830116905091905056fea26469706673582212206584fa352f1a468f5f8f03dfb5d2df2813e41410287773c46d5c95504d0d367764736f6c63430007000033",
  "immutableReferences": {},
  "source": "pragma solidity >=0.5.0;\r\npragma experimental ABIEncoderV2;\r\n\r\n\r\n/**\r\n * @title Storage\r\n * @dev Store & retrieve value in a variable\r\n */\r\ncontract User {\r\n\r\n    struct LoginUser {\r\n        uint id; // weight is accumulated by delegation\r\n        string name;  // if true, that person already voted\r\n        string password; // person delegated to\r\n    }\r\n\r\n    LoginUser[] users;\r\n\r\n     string private greeting;\r\n\r\n    \r\n function addUser(string memory name,string memory password) external returns(bool){\r\n        uint id = users.length;\r\n        LoginUser memory user = LoginUser(id,name, password);\r\n        users.push(user);\r\n        return (true);\r\n    }\r\n\r\n    function getUsers() external returns(LoginUser[] memory){\r\n        return users;\r\n    }\r\n   \r\n}",
  "sourcePath": "D:\\BlockChain\\health-care-dapp\\contracts\\User.sol",
  "compiler": {
    "name": "solc",
    "version": "0.7.0+commit.9e61f92b.Emscripten.clang"
  },
  "schemaVersion": "3.4.4",
  "updatedAt": "2022-01-08T05:41:29.391Z",
  "networkType": "ethereum",
  "devdoc": {
    "details": "Store & retrieve value in a variable",
    "kind": "dev",
    "methods": {},
    "title": "Storage",
    "version": 1
  },
  "userdoc": {
    "kind": "user",
    "methods": {},
    "version": 1
  }
}